:060000008031ED2A000032
:0800080083018031200077081C
:10001000A0007808A1007908A2007A08A3008B1E2E
:1000200013280B191C282008F7002108F8002208C3
:10003000F9002308FA0009008031512822000E132C
:1000400021000E1322000E1621000E1222008E1225
:1000500021008E1222008E1521008E112000080032
:10006000C8080319422822008E1221008E12023085
:10007000F700F70B3928000022008E1121008E11A5
:100080004F28200022008E1521008E110230F7002B
:10009000F70B4828000022008E1621008E12200047
:1000A0000800BC309500AA0A0319AB0AA808031D72
:1000B0005C28A90803196328A708031963282808DE
:1000C0000319A903A8032A08E83C031D6D282B087F
:1000D000033C031D6D28AB01AA012B082D02031C54
:1000E0007D28031D77282C082A0203187D2821006B
:1000F0000E1122000E158128200021000E11220071
:100100000E112000AF08031D89282E08633C031838
:100110008F28A808031D9328A908031D93281E20D3
:10012000AF01AE01DA281E20B20803199928003069
:100130009A280130C7004708C800C8080319AF282B
:1001400022000E1321000E130230F700F70BA62831
:10015000000022000E1221000E12BC2820002200F6
:100160000E1621000E120230F700F70BB528000022
:1001700022000E1721000E1320002B082F02031C53
:10018000D128031DC7282E082A020318D128B20837
:10019000031DCC280030CD280130C700C800302016
:1001A000DA28B2080319D6280030D7280130C70052
:1001B000C800302007080B110B11803113282030A4
:1001C00085001E30840000080319F3280A30F80067
:1001D000F701F70BE928F80BE8285F30F700F70B79
:1001E000EF28800BE6280800911EF42823001D0844
:1001F0002000A50023001908F8002000A51C0329F1
:1002000023001D121D16200008001030C400F70145
:10021000FA01C10CC00C031C13294208F70703188C
:10022000FA0A4308FA07FA0CF70CF90CF80CC40B9D
:1002300009290800F801F901F701FA014308031D33
:100240002429420803193E291030C4000310C00DB0
:10025000C10DF70DFA0D43087A02031D312942083A
:100260007702031C3A294208F702031CFA034308E9
:10027000FA020314F80DF90DC40B26290800BF017A
:10028000BE010030911A0130003A0319882AB408DF
:10029000031D892922008C16DF3065002000F42020
:1002A0007808B4003408413C031D58290130A700E8
:1002B0003408613C0319A7013408583C0319732919
:1002C0003408593C031973293408793C03197329FC
:1002D000B401B501B60122008C12DF306500003098
:1002E000F8008B2A20003408593C03197B29340874
:1002F000793C031D7F294E30A9002030A800340826
:10030000793C031D88290130B3005930B400892994
:10031000B301B508031DFB29F4207808B5003508A2
:10032000303C031897293508393C0318A229B40139
:10033000B501B60122008C12DF3065000030F800F4
:100340008B2A20003408593A0319AA29013A0319C3
:10035000D729FA293130B502B3080319B229350873
:10036000083CB5003508043C031CB8290030B92905
:100370000130B200B2080319C0290530B502C32903
:100380003508043CB500BF01CC30BE003F08C100B9
:100390003E08C000C3013508C20005217908BF002E
:1003A0007808BE003F08B1003E08B000FA2931309D
:1003B000B502BF011F30BE003F08C1003E08C000AB
:1003C000C3013508C20005217908BF007808BE00C6
:1003D0003F08C1003E08C000C3010A30C2001A2114
:1003E0007908BF007808BE003C303E07AC00003002
:1003F0003F3DAD00B601B608031D882AF4207808F9
:10040000B60036082F3C0318092A3608393C031871
:10041000142AB401B501B60122008C12DF30650048
:100420000030F8008B2A20003408593A03191C2A9E
:10043000013A03195C2A7D2A3030B602B308031949
:10044000242A3608093CB600B208031D442A36089F
:100450000A3CB6003608C0000A30C1004108F80165
:1004600040020318362A4008F700422AF7010830F4
:10047000C200C00DF70D410877020318F700F80D10
:10048000C20B392A7708B600BF011430BE003F08FE
:10049000C1003E08C000C3013608C200052179082A
:1004A000BF007808BE003E08B0073F08B13D3108E4
:1004B000AF003008AE007D2A3030B602BF011F30D9
:1004C000BE003F08C1003E08C000C3013608C2009C
:1004D00005217908BF007808BE003F08C1003E082A
:1004E000C000C3016430C2001A217908BF00780837
:1004F000BE003E08AC073F08AD3DB401B501B601F2
:1005000022008C12DF3065000030F8008B2A2000BA
:100510000130F800220080312000612B0508C60060
:100520000408C5003F0EF038C100C107E23EC2001A
:10053000323EC4003F080F39C207C207C407E93E74
:10054000C300C307C3073E0E0F39C307C407C30D5B
:10055000C40DC409C40D3E080F39C407C10D0730CE
:10056000C0000A30C407C303031CB22AC307C20376
:10057000031CB62AC207C103031CBA2AC107C00361
:10058000031CBE2A85014030840007304505451311
:1005900084070030853D0408443C031DD22A8508A9
:1005A000031945170008F700031DDE2A451BDE2A44
:1005B000451AE82AC519DE2A2030E12AC515451258
:1005C0003030F7077708111EE32A23009A00200035
:1005D0000131451FCB2A80319C2BF030210099003E
:1005E0002000A50123009F1544309B0000309C0093
:1005F000A6309E0090309D0001302000A700A90188
:10060000A801AB01AA01AD01AC01AF01AE01B1017E
:10061000B001B200B301B401B501B60123008C01F1
:100620008D018E012200920191019401930120001D
:100630001E20B801B701BA01B9010430BB00BD01E9
:10064000BC01AD014830AC00AF01AE01210015087E
:10065000C039950007080B118B16C0308B041E168D
:100660009E161E139E131D141E109E101E11043084
:1006700023008C0000308E008D00200026150830ED
:10068000F80021001D08833978049D008F301E0575
:1006900020389E002000BB030319602B22008C161B
:1006A000DF30650032302000BE00DF206400220011
:1006B0008C12DF30650032302000BE00DF204B2B73
:1006C0003F29780BA22BBC0A0319BD0A21009D14F7
:1006D0009D18682B2000B80121001C082000B700DD
:1006E0003D08E93C03187B2BFF3A031D832B3C0894
:1006F000603C031C832B37083902031D832B380809
:100700003A020319A22B3808BA003708B900BD0114
:10071000BC012A30111E8A2B23009A00423020008F
:10072000111E902B23009A001030840020003808FE
:10073000BF003708BE008E2A0A30111E9D2B2300F1
:0A0740009A0020006400602B6300A3
:020000040001F9
:04000E00DC39FF1EBC
:00000001FF
;PIC16F1829
;CRC=1A69  CREATED="01-feb-21 15:41"
